{
  "transactions": [
    {
      "hash": "0xebb94b831502680078b1ee04dfa16d684d203fb43ab3a85181c169d29a41a65a",
      "transactionType": "CALL",
      "contractName": null,
      "contractAddress": "0x82b069578ae3da9ea740d24934334208b83e530e",
      "function": "registerMerchant(address,uint64,uint64)",
      "arguments": [
        "0x7D71f82611BA86BC302A655EC3D2050E98BAf49C",
        "2592000",
        "604800"
      ],
      "transaction": {
        "from": "0x7d71f82611ba86bc302a655ec3d2050e98baf49c",
        "to": "0x82b069578ae3da9ea740d24934334208b83e530e",
        "gas": "0x1a1dd",
        "value": "0x0",
        "input": "0xd8ab25500000000000000000000000007d71f82611ba86bc302a655ec3d2050e98baf49c0000000000000000000000000000000000000000000000000000000000278d000000000000000000000000000000000000000000000000000000000000093a80",
        "nonce": "0x1b",
        "chainId": "0xaa36a7"
      },
      "additionalContracts": [],
      "isFixedGasLimit": false
    },
    {
      "hash": "0x394b056e7f811cf5ce0add5f6cdb0828f472272b9d69f1ee2b274ea3c3d4655b",
      "transactionType": "CALL",
      "contractName": null,
      "contractAddress": "0x82b069578ae3da9ea740d24934334208b83e530e",
      "function": "setMerchantPrice(uint256,address,uint256)",
      "arguments": [
        "1",
        "0x10586EBF2Ce1F3e851a8F15659cBa15b03Eb8B8A",
        "100000000000000000000"
      ],
      "transaction": {
        "from": "0x7d71f82611ba86bc302a655ec3d2050e98baf49c",
        "to": "0x82b069578ae3da9ea740d24934334208b83e530e",
        "gas": "0xfef7",
        "value": "0x0",
        "input": "0x5f815ade000000000000000000000000000000000000000000000000000000000000000100000000000000000000000010586ebf2ce1f3e851a8f15659cba15b03eb8b8a0000000000000000000000000000000000000000000000056bc75e2d63100000",
        "nonce": "0x1c",
        "chainId": "0xaa36a7"
      },
      "additionalContracts": [],
      "isFixedGasLimit": false
    },
    {
      "hash": "0xd0b6a218497c44f034a07ac0b7dd252eac3e2ed43431351a13099ce186e654ec",
      "transactionType": "CALL",
      "contractName": null,
      "contractAddress": "0x82b069578ae3da9ea740d24934334208b83e530e",
      "function": "setMerchantPrice(uint256,address,uint256)",
      "arguments": [
        "1",
        "0x0000000000000000000000000000000000000000",
        "1000000000000000"
      ],
      "transaction": {
        "from": "0x7d71f82611ba86bc302a655ec3d2050e98baf49c",
        "to": "0x82b069578ae3da9ea740d24934334208b83e530e",
        "gas": "0xfd9b",
        "value": "0x0",
        "input": "0x5f815ade0000000000000000000000000000000000000000000000000000000000000001000000000000000000000000000000000000000000000000000000000000000000000000000000000000000000000000000000000000000000038d7ea4c68000",
        "nonce": "0x1d",
        "chainId": "0xaa36a7"
      },
      "additionalContracts": [],
      "isFixedGasLimit": false
    }
  ],
  "receipts": [
    {
      "status": "0x1",
      "cumulativeGasUsed": "0x89125a",
      "logs": [
        {
          "address": "0x82b069578ae3da9ea740d24934334208b83e530e",
          "topics": [
            "0x817e18163b81cf9c490b9d9e647dae7d192c4907c18acf578ec4e3de57202023",
            "0x0000000000000000000000000000000000000000000000000000000000000001",
            "0x0000000000000000000000007d71f82611ba86bc302a655ec3d2050e98baf49c"
          ],
          "data": "0x0000000000000000000000007d71f82611ba86bc302a655ec3d2050e98baf49c",
          "blockHash": "0xafc4de8a8f71a7dd0bff872c2ba81491291dbee630b1830d96a381a23bef3623",
          "blockNumber": "0x8d70b7",
          "blockTimestamp": "0x68d3d6bc",
          "transactionHash": "0xebb94b831502680078b1ee04dfa16d684d203fb43ab3a85181c169d29a41a65a",
          "transactionIndex": "0x4d",
          "logIndex": "0x12f",
          "removed": false
        }
      ],
      "logsBloom": "0x00000000000000000000000000000000200000000000000000000000000000001000000000000000000000000000000000000000000000000000000000040000000000000000000000000000000000000000000000040800000000000000000000000000080000000000000000000800000000000000000000000000000000000000000000000000000000000000000000000000000000000000000000000000000000000000000000000000000000000000000000000000000000020000000000000000000000000000000000000000000000010000000000000000010040000000000000000000000000000008000000000000000000000000000000000000",
      "type": "0x2",
      "transactionHash": "0xebb94b831502680078b1ee04dfa16d684d203fb43ab3a85181c169d29a41a65a",
      "transactionIndex": "0x4d",
      "blockHash": "0xafc4de8a8f71a7dd0bff872c2ba81491291dbee630b1830d96a381a23bef3623",
      "blockNumber": "0x8d70b7",
      "gasUsed": "0x12e87",
      "effectiveGasPrice": "0xf429e",
      "from": "0x7d71f82611ba86bc302a655ec3d2050e98baf49c",
      "to": "0x82b069578ae3da9ea740d24934334208b83e530e",
      "contractAddress": null
    },
    {
      "status": "0x1",
      "cumulativeGasUsed": "0x89caf2",
      "logs": [],
      "logsBloom": "0x00000000000000000000000000000000000000000000000000000000000000000000000000000000000000000000000000000000000000000000000000000000000000000000000000000000000000000000000000000000000000000000000000000000000000000000000000000000000000000000000000000000000000000000000000000000000000000000000000000000000000000000000000000000000000000000000000000000000000000000000000000000000000000000000000000000000000000000000000000000000000000000000000000000000000000000000000000000000000000000000000000000000000000000000000000000",
      "type": "0x2",
      "transactionHash": "0x394b056e7f811cf5ce0add5f6cdb0828f472272b9d69f1ee2b274ea3c3d4655b",
      "transactionIndex": "0x4e",
      "blockHash": "0xafc4de8a8f71a7dd0bff872c2ba81491291dbee630b1830d96a381a23bef3623",
      "blockNumber": "0x8d70b7",
      "gasUsed": "0xb898",
      "effectiveGasPrice": "0xf429e",
      "from": "0x7d71f82611ba86bc302a655ec3d2050e98baf49c",
      "to": "0x82b069578ae3da9ea740d24934334208b83e530e",
      "contractAddress": null
    },
    {
      "status": "0x1",
      "cumulativeGasUsed": "0x8a828e",
      "logs": [],
      "logsBloom": "0x00000000000000000000000000000000000000000000000000000000000000000000000000000000000000000000000000000000000000000000000000000000000000000000000000000000000000000000000000000000000000000000000000000000000000000000000000000000000000000000000000000000000000000000000000000000000000000000000000000000000000000000000000000000000000000000000000000000000000000000000000000000000000000000000000000000000000000000000000000000000000000000000000000000000000000000000000000000000000000000000000000000000000000000000000000000",
      "type": "0x2",
      "transactionHash": "0xd0b6a218497c44f034a07ac0b7dd252eac3e2ed43431351a13099ce186e654ec",
      "transactionIndex": "0x4f",
      "blockHash": "0xafc4de8a8f71a7dd0bff872c2ba81491291dbee630b1830d96a381a23bef3623",
      "blockNumber": "0x8d70b7",
      "gasUsed": "0xb79c",
      "effectiveGasPrice": "0xf429e",
      "from": "0x7d71f82611ba86bc302a655ec3d2050e98baf49c",
      "to": "0x82b069578ae3da9ea740d24934334208b83e530e",
      "contractAddress": null
    }
  ],
  "libraries": [],
  "pending": [],
  "returns": {},
  "timestamp": 1758713534,
  "chain": 11155111,
  "commit": "516de5e"
}